HPRPSASSE30082024140061651   01CAIXA VIDA E PREVIDENCIA S.A.                                                                                                                                                                                                                                                
1827585600000850000864479441801032000STEFANY SAFFIRA DE MEDEIROS SILVA       1003.236.200    SSP  RN1239400000000000000000000000008499218939001072010GC99                                        01010001000STEFFANYSAFIRA5@GMAIL.COM                         AUXILIAR DE ESCRITORIO E ASSEMELHADOS   22    
2827585600000851POTENGI 30                                        ALFREDO MESQUITA              MACAIBA                            RN59286217                                                                                                                                                               
2827585600000852POTENGI 30                                        ALFREDO MESQUITA              MACAIBA                            RN59286217                                                                                                                                                               
38275856000008500562758300820241275837010005797264435              012013800000000000001844 S0100000                                        00000000000000 N ENVPAG000C00003008202400000000000184427580000000000002383008202400000000000000001N0000000000000000           C120138   0800616500017300        
482758560000085HERDEIROS LEGAIS                        010100010000000000000004700000000000000010000000HERDEIROS LEGAIS                                                                                                                                                                                     
B827585600000850110000000000000849921893900000000000000000000000003940000000000NN00008644794418                                        01010001 0000010100010101000112 800000000002000000N 01010001    N               000000000000184401000       1042758370100057972644352SAP01                           
1800315600000530006054600737613051992FRANCISCO RAFAEL DA SILVA DOS REIS      106761024421    CONTRCE1199500000000000000000000000008599608967222072022GV01                                        01010001000RAFAELREISLOC1992@GMAIL.COM                       PERITO                                  22    
2800315600000531PADRE GEOVANI 36                                  PASSARE                       FORTALEZA                          CE60868664                                                                                                                                                               
2800315600000532PADRE GEOVANI 36                                  PASSARE                       FORTALEZA                          CE60868664                                                                                                                                                               
38003156000005300560031300820241003112880008375763363              014714280000000000001844 S2500000                                        00000000000000 N ENVPAG000C00003008202400000000000184400000000000000000000209202400000000000000001N0000000000000000           C147142   0800616500031900        
480031560000053HERDEIROS LEGAIS                        010100010000000000000004700000000000000010000000HERDEIROS LEGAIS                                                                                                                                                                                     
B800315600000530110000000000000859960896720000000000000000000000009950000000000NN00060546007376                                        01010001 0000010100010101000112 800000000002000000N 01010001    N               000000000000184401000       1040031128800083757633631SAP01                           
A80031560000053003112880008375763363000000000000000000000001844300820240209202400000000000000000060063000030000000051756                                                                                                                                                                                    
1800575600001890000080405649814121978MANOEL PEREIRA DA SILVA JUNIOR          11679414        SSP  AL2129100000000000000000000000008299954855004012018GV01                                        01010001000JUNIORDIVA01@GMAIL.COM                            OCUPANTE CARGO DIRECAO E ASSESS. INTERME55    
2800575600001891MANOEL AUGUSTO DOS SANTOS 74                      SAO CRISTOVAO                 PALMEIRA DOS INDIOS                AL57601160                                                                                                                                                               
2800575600001892MANOEL AUGUSTO DOS SANTOS 74                      SAO CRISTOVAO                 PALMEIRA DOS INDIOS                AL57601160                                                                                                                                                               
38005756000018900560057300820241005737010005796551457              008308940000000000002188 S1500000                                        00000000000000 N ENVPAG000C00003008202400000000000218800570000000000002383008202400000000000000001N0000000000000000           C083089   0800616500033500        
480057560000189DIVACIRA BEZERRA SILVA                  010100010000000000000024100000000000000010000000CONJUGE                                                                                                                                                                                              
B800575600001890110000000000000829995485500000000000000000000000002910000000000NN00000804056498                                        01010001 0000010100010101000112 800000000002000000N 01010001    N               000000000000218801000       1040057370100057965514572SAP01                           
1800575600001710000834509849508041981MARIA JANAINA FERREIRA TENORIO          12001004118612  OUTROAL2299900000000000000000000000008299985817924042007GV01                                        01010001000JF547671@GMAIL.COM                                AUXILIAR GERAL                          11    
2800575600001711BELARMINO JOSE DA SILVA 32                        JARDIM BRASIL                 PALMEIRA DOS INDIOS                AL57607206                                                                                                                                                               
2800575600001712BELARMINO JOSE DA SILVA 32                        JARDIM BRASIL                 PALMEIRA DOS INDIOS                AL57607206                                                                                                                                                               
38005756000017100560057300820241005712880008710235416              015521960000000000002188 S0100000                                        00000000000000 N ENVPAG000C00003008202400000000000218800570000000000002383008202400000000000000001N0000000000000000           C155219   0800616500033700        
480057560000171HERDEIROS LEGAIS                        010100010000000000000004700000000000000010000000HERDEIROS LEGAIS                                                                                                                                                                                     
B800575600001710110000000000000829998581790000000000000000000001876980000000000NN00008345098495                                        01010001 0000010100010101000112 800000000002000000N 01010001    N               000000000000218801000       1040057128800087102354162SAP01                           
1800595600002230005745411651503121969LUZIA PEREIRA DA SILVA                  1957417         SSP  SE2299500000000000000000000000007999822296425092015GV01                                        01010001000FRANCISLAYNEELOIRE@GMAIL.COM                      PERITO                                  11    
280059560000223125 5                                              FERNANDO COLLOR               NOSSA SENHORA DO SOCORRO           SE49155170                                                                                                                                                               
280059560000223225 5                                              FERNANDO COLLOR               NOSSA SENHORA DO SOCORRO           SE49155170                                                                                                                                                               
38005956000022300560059300820241005912880007279098038              015100390000000000003549 S0500000                                        00000000000000 N ENVPAG000C00003008202400000000000354900590000000000002383008202400000000000000001N0000000000000000           C151003   0800616500033900        
480059560000223FRANCISLAYNE ELOIRE DA SILVA CRUZ       010100010000000000000024300000000000000002500000FILHOS                                                                                                                                                                                               
480059560000223LUAN SILVA SANTOS                       010100010000000000000014300000000000000002500000FILHOS                                                                                                                                                                                               
480059560000223LUCAS PEREIRA DA SILVA                  010100010000000000000014300000000000000002500000FILHOS                                                                                                                                                                                               
480059560000223LEANDRO THIAGO CARVALHO DA SILVA        010100010000000000000014300000000000000002500000FILHOS                                                                                                                                                                                               
B800595600002230110000000000000799982229640000000000000000000000009950000000000NN00057454116515                                        01010001 0000010100010101000112 800000000002000000N 01010001    N               000000000000354901000       1040059128800072790980382SAP01                           
TPRPSASSE000000000000008200000164000000820000009400000000000000000000000000000000000000000000004500000082000000000000000300000000000000000000000000000000000000000000000000000000000000000000000000000000000000000000000000000000000000000000000000000000 00000552                                          