HPRPSASSE 03092024150065281   01CAIXA VIDA E PREVIDENCIA                                                                                                                                                                                                                                                    0
TPRPSASSE AAAAAAAAAAAAAAAAAAAAAAAAAAAAAAAAA0000000000000000000000000000000000000000000000000000000000000000000000000000000000000000000000000000000000000000000000000000000                                                                                 00000000                                         0
HPRPSASSE 03092024150065283   01CAIXA VIDA E PREVIDENCIA                                                                                                                                                                                                                                                    0
TPRPSASSE AAAAAAAAAAAAAAAAAAAAAAAAAAAAAAAAA0000000000000000000000000000000000000000000000000000000000000000000000000000000000000000000000000000000000000000000000000000000                                                                                 00000000                                         0
HPRPSASSE03092024150035410   01CAIXA VIDA E PREVIDENCIA                                                                                                                                                                                                                                                    0
TPRPSASSE0000000000000000000000000000000000000000000000000000000000000000000000000000000000000000000000000000000000000000000000000000000000000000000000000000000000000000                                                                                 00000000                                         0
HPRPSASSE03092024120061641   01CAIXA VIDA E PREVIDENCIA                                                                                                                                                                                                                                                     
1875782800000410008087567048217101972MARIA DA CONCEICAO CARLOS               14240317        SSP  PE1212508108796910800000000000008198796910801010001GC99                                        01010001000MARIADACONCEICAO@GMAIL.COM                        ADMINISTRADOR                           55    
2875782800000411JOAO BARBALHO 81                                                                SIRINHA M - PE                     PE55580000                                                                                                                                                               
2875782800000412JOAO BARBALHO 81CASA                              CENTRO                        SIRINHAEM                          PE55580000                                                                                                                                                               
387578280000041002875780502092024N00000014U00000000000000000000000067400005200000000000000000000001501939SNNNNN SNN 01201                                        00000000000000C150193 ENVPAG0000309202400000000067400021240000000000002380309202400000000000000001000001N30000     08006164000001          
487578280000041HERDEIROS LEGAIS                        010100010000000000000004610000000000000000000000                                                                                                                                                                                                     
587578280000041N                                                                                                                                                                                                                                                     00000000000000000000006740000000000000 
B8757828000004101100          0819879691080000000000000000 00000001250000000000N 00000000000000                                        S01010001000001           N           N02092024                500000000060869602N                        N                          15                              
1805701803310340000599103299801041983SIMONE PINTO                            111.109.912-0   SSP  PR1299900000000000000000000000004499945399324072007GV01                                        01010001000                                                                                          22    
2805701803310341XAM SDS 99999999                                  ZONA RURAL                    ROBERTO SILVEIRA                   PR87524000                                                                                                                                                               
2805701803310342XAM SDS 99999999                                  ZONA RURAL                    ROBERTO SILVEIRA                   PR87524000                                                                                                                                                               
380570180331034001805700502092024N00000024M00000000000200000000000000000012105701288000727874939600954998SNNNNN  NN 01210                                        00000000000000C095499 ENVPAG0000309202400000000000350005700000000000000000409202400000000000000001000000N20000     08006164000002          
480570180331034MARCELINA PINTO MENDES                  051120160000000000000024305000050000000000000000                                                                                                                                                                                                     
480570180331034SOLORRANE BEARIZ PINTO MENDES           311020190000000000000024305000050000000000000000                                                                                                                                                                                                     
580570180331034N                                                                                                                                                                                                                                                     00000000002000000000000000000000001500 
680570180331034007000000003281581000000000001500000M                                                                                                                                                                                                                                                        
B8057018033103401100          0449994539930000000000000000 00995411010000000000N 00000000000000                                        S01010001000001           N           N02092024                100000000005000002N                        N                          15                              
A80570180331034057012880007278749396000000000000000000000003500030920240409202400000000000000000060063000030000000415367                                                                                                                                                                                    
1807261803285270000011441992214022003JAMESKY FLORISTIN                       1                      1171000000000000000000000000001199183675301010001GV01                                        01010001000                                                                                          33    
2807261803285271MARIANA ZANETTI 1920CASA                          JARDIM PANORAMA               TOLEDO                             PR85911130                                                                                                                                                               
2807261803285272MARIANA ZANETTI 1920CASA                          JARDIM PANORAMA               TOLEDO                             PR85911130                                                                                                                                                               
380726180328527001807260502092024N00000044M00000000010000000000000000000005107261288000727874202201458149SNNNNN  NN 01210                                        00000000000000C145814 ENVPAG0000309202400000000010000007260000000000002380309202400000000000000001000000N20000     08006164000003          
480726180328527HERDEIROS LEGAIS                        010100010000000000000004610000000000000000000000                                                                                                                                                                                                     
580726180328527N                                                                                                                                                                                                                                                     00000000100000000000000000000000000000 
TSEGINFDB0000000000000841000016530000084100000883000000940000000000000000000000000000000000000841000000000000000000000002000000000000000000000000000000000000000000000000                                                                                 00005155                                          
