HPRPFCAP 27092024150065461   01CAIXA VIDA E PREVIDENCIA                                                                                                                                                                                                                                                    0
TPRPFCAP 0000000000000000000000000000000000000000000000000000000000000000000000000000000000000000000000000000000000000000000000000000000000000000000000000000000000000000                                                                                 00000000                                         0
HPRPFCAP 27092024150065463   01CAIXA VIDA E PREVIDENCIA                                                                                                                                                                                                                                                    0
TPRPFCAP 0000000000000000000000000000000000000000000000000000000000000000000000000000000000000000000000000000000000000000000000000000000000000000000000000000000000000000                                                                                 00000000                                         0
HCAPINFDB27092024150035590   01CAIXA VIDA E PREVIDENCIA                                                                                                                                                                                                                                                    0
TCAPINFDB0000000000000000000000000000000000000000000000000000000000000000000000000000000000000000000000000000000000000000000000000000000000000000000000000000000000000000                                                                                 00000000                                         0
HPRPFPREV27092024120061821   01CAIXA VIDA E PREVIDENCIA                                                                                                                                                                                                                                                     
1829851803336780003465950119111071963JOENIR SIDRONIO DE CAMPOS               100079687610    CONTRMT2153200000000000000000000000009398122366616022023GC92                                        01010001000JOENIRSIDRONIO@GMAIL.COM                                                                  55    
2829851803336781R ALAGOAS 00000  CENTRO SUL  MT  VARZEA GRANDE  78CENTRO SUL                    VARZEA GRANDE                      MT78135630                                                                                                                                                               
2829851803336782R ALAGOAS 00000  CENTRO SUL  MT  VARZEA GRANDE  78CENTRO SUL                    VARZEA GRANDE                      MT78135630                                                                                                                                                               
382985180333678001829850924092024N00010005U00000000000000000000000100000005200000000000000000000000964212SNNNNN SNN 01190                                        00000000000000C096421 ENVPAG0002709202400000000100000029850000000000002382709202400000000000000001000001N20000     08006182000001          
482985180333678HERDEIROS LEGAIS                        010100010000000000000004610000000000000000000000                                                                                                                                                                                                     
582985180333678N                                                                                                                                                                                                                                                     00000000000000000000010000000000000000 
B8298518033367801100          0939812236660000000000000000 00000005320000000000N 00000000000000                                        S01010001000001           N           N24092024                500000000064693502N                        N                          15                              
1800271803243040006104794238024031995JULIA DE OLIVEIRA DE BARROS             10443279420124  SSP  MA1259800000000000000000000000009898506842113102018GV01                                        01010001000JULIABARROS240395@GMAIL.COM                       EMPREGADO DOMESTICO                     11    
2800271803243041PIQUIZEIRO NOVA MIRITIUA 22                       ALTO DO TURU                  SAO JOSE DE RIBAMAR                MA65110000                                                                                                                                                               
2800271803243042RUA VINTE E OITO DE SETEMBROR PIQUIZEIRO 22       CENTRO                        SAO LUIS                           MA65010000                                                                                                                                                               
380027180324304001800270924092024N00050036M00000000000500000000000000000008100273701000578708149401503737SNNNNN SNN 01210                                        00000000000000C150373 ENVPAG0002709202400000000000500006300000000000002382709202400000000000000002000000N20000     08006182000002          
480027180324304HERDEIROS LEGAIS                        010100010000000000000004610000000000000000000000                                                                                                                                                                                                     
580027180324304N                                                                                                                                                                                                                                                     00000000005000000000000000000000000000 
B8002718032430401100          0989850684210000000000000000 00000005980000000000N 00000000000000                                        S01010001000001           N           N24092024                100000000014120002N                        N                          15                              
TSEGINFDB0000000000000919000018000000091900000966000000810000000000000000000000000000000000000919000000000000000000000000000000000000000000000000000000000000000000000000  