0REPASSE SEGUROS      0630870000000113CAIXA VIDA E PREVIDENCIA                                                                                                                                                                                                                                                                                                                                                                000001
1 63087000000011330630870000000113040000000000479600000000000000000000000000602511202426112024ADESAO26112024                                                                                                                                                                                                                                                                                                                  000002
2802861103237810630630870000000113    8888881455887777         8888899999999602511202426112024ADESAO26112024                                                                                                                                                                                                                                                                                                                  000003
2815070903307820630630870000000113    000000019900                          602511202426112024ADESAO26112024                                                                                                                                                                                                                                                                                                                  000004
643402770011663000000396618340211000310124003CREDITO25112024                                                                                                                                                                                                                                                                                                                                                                  000005
643102770038740000002734931310211003207848203CREDITO25112024                                                                                                                                                                                                                                                                                                                                                                  000006
9REPASSE SEGUROS      000000000000000000002169000015060000068600010731                                                                                                                                                                                                                                                                                                                                                        000007
